{
  "_format": "hh-sol-artifact-1",
  "contractName": "Voting",
  "sourceName": "contracts/Voting.sol",
  "abi": [
    {
      "inputs": [
        {
          "internalType": "string[]",
          "name": "_optionNames",
          "type": "string[]"
        }
      ],
      "stateMutability": "nonpayable",
      "type": "constructor"
    },
    {
      "inputs": [
        {
          "internalType": "address",
          "name": "owner",
          "type": "address"
        }
      ],
      "name": "OwnableInvalidOwner",
      "type": "error"
    },
    {
      "inputs": [
        {
          "internalType": "address",
          "name": "account",
          "type": "address"
        }
      ],
      "name": "OwnableUnauthorizedAccount",
      "type": "error"
    },
    {
      "anonymous": false,
      "inputs": [
        {
          "indexed": true,
          "internalType": "address",
          "name": "previousOwner",
          "type": "address"
        },
        {
          "indexed": true,
          "internalType": "address",
          "name": "newOwner",
          "type": "address"
        }
      ],
      "name": "OwnershipTransferred",
      "type": "event"
    },
    {
      "anonymous": false,
      "inputs": [
        {
          "indexed": true,
          "internalType": "address",
          "name": "voter",
          "type": "address"
        },
        {
          "indexed": true,
          "internalType": "uint256",
          "name": "optionIndex",
          "type": "uint256"
        }
      ],
      "name": "VoteCasted",
      "type": "event"
    },
    {
      "inputs": [
        {
          "internalType": "uint256",
          "name": "_optionIndex",
          "type": "uint256"
        }
      ],
      "name": "getOption",
      "outputs": [
        {
          "internalType": "string",
          "name": "name",
          "type": "string"
        },
        {
          "internalType": "uint256",
          "name": "voteCount",
          "type": "uint256"
        }
      ],
      "stateMutability": "view",
      "type": "function"
    },
    {
      "inputs": [],
      "name": "getOptionCount",
      "outputs": [
        {
          "internalType": "uint256",
          "name": "",
          "type": "uint256"
        }
      ],
      "stateMutability": "view",
      "type": "function"
    },
    {
      "inputs": [
        {
          "internalType": "address",
          "name": "",
          "type": "address"
        }
      ],
      "name": "hasVoted",
      "outputs": [
        {
          "internalType": "bool",
          "name": "",
          "type": "bool"
        }
      ],
      "stateMutability": "view",
      "type": "function"
    },
    {
      "inputs": [
        {
          "internalType": "uint256",
          "name": "",
          "type": "uint256"
        }
      ],
      "name": "options",
      "outputs": [
        {
          "internalType": "string",
          "name": "name",
          "type": "string"
        },
        {
          "internalType": "uint256",
          "name": "voteCount",
          "type": "uint256"
        }
      ],
      "stateMutability": "view",
      "type": "function"
    },
    {
      "inputs": [],
      "name": "owner",
      "outputs": [
        {
          "internalType": "address",
          "name": "",
          "type": "address"
        }
      ],
      "stateMutability": "view",
      "type": "function"
    },
    {
      "inputs": [],
      "name": "renounceOwnership",
      "outputs": [],
      "stateMutability": "nonpayable",
      "type": "function"
    },
    {
      "inputs": [
        {
          "internalType": "address",
          "name": "newOwner",
          "type": "address"
        }
      ],
      "name": "transferOwnership",
      "outputs": [],
      "stateMutability": "nonpayable",
      "type": "function"
    },
    {
      "inputs": [
        {
          "internalType": "uint256",
          "name": "_optionIndex",
          "type": "uint256"
        }
      ],
      "name": "vote",
      "outputs": [],
      "stateMutability": "nonpayable",
      "type": "function"
    }
  ],
  "bytecode": "0x60806040523480156200001157600080fd5b50604051620017833803806200178383398181016040528101906200003791906200054e565b33600073ffffffffffffffffffffffffffffffffffffffff168173ffffffffffffffffffffffffffffffffffffffff1603620000ad5760006040517f1e4fbdf7000000000000000000000000000000000000000000000000000000008152600401620000a49190620005e4565b60405180910390fd5b620000be81620001f860201b60201c565b50620000db673dc298c117cc33f460c01b620002bc60201b60201c565b620000f767337762bd0fce768160c01b620002bc60201b60201c565b6200011367c27e147f535094de60c01b620002bc60201b60201c565b60005b8151811015620001f0576200013c676f10956981bad9cb60c01b620002bc60201b60201c565b620001586759b7ca508d810dbe60c01b620002bc60201b60201c565b600160405180604001604052808484815181106200017b576200017a62000601565b5b60200260200101518152602001600081525090806001815401808255809150506001900390600052602060002090600202016000909190919091506000820151816000019081620001cd91906200087b565b506020820151816001015550508080620001e79062000991565b91505062000116565b5050620009de565b60008060009054906101000a900473ffffffffffffffffffffffffffffffffffffffff169050816000806101000a81548173ffffffffffffffffffffffffffffffffffffffff021916908373ffffffffffffffffffffffffffffffffffffffff1602179055508173ffffffffffffffffffffffffffffffffffffffff168173ffffffffffffffffffffffffffffffffffffffff167f8be0079c531659141344cd1fd0a4f28419497f9722a3daafe3b4186f6b6457e060405160405180910390a35050565b50565b6000604051905090565b600080fd5b600080fd5b600080fd5b6000601f19601f8301169050919050565b7f4e487b7100000000000000000000000000000000000000000000000000000000600052604160045260246000fd5b6200032382620002d8565b810181811067ffffffffffffffff82111715620003455762000344620002e9565b5b80604052505050565b60006200035a620002bf565b905062000368828262000318565b919050565b600067ffffffffffffffff8211156200038b576200038a620002e9565b5b602082029050602081019050919050565b600080fd5b600080fd5b600067ffffffffffffffff821115620003c457620003c3620002e9565b5b620003cf82620002d8565b9050602081019050919050565b60005b83811015620003fc578082015181840152602081019050620003df565b60008484015250505050565b60006200041f6200041984620003a6565b6200034e565b9050828152602081018484840111156200043e576200043d620003a1565b5b6200044b848285620003dc565b509392505050565b600082601f8301126200046b576200046a620002d3565b5b81516200047d84826020860162000408565b91505092915050565b60006200049d62000497846200036d565b6200034e565b90508083825260208201905060208402830185811115620004c357620004c26200039c565b5b835b818110156200051157805167ffffffffffffffff811115620004ec57620004eb620002d3565b5b808601620004fb898262000453565b85526020850194505050602081019050620004c5565b5050509392505050565b600082601f830112620005335762000532620002d3565b5b81516200054584826020860162000486565b91505092915050565b600060208284031215620005675762000566620002c9565b5b600082015167ffffffffffffffff811115620005885762000587620002ce565b5b62000596848285016200051b565b91505092915050565b600073ffffffffffffffffffffffffffffffffffffffff82169050919050565b6000620005cc826200059f565b9050919050565b620005de81620005bf565b82525050565b6000602082019050620005fb6000830184620005d3565b92915050565b7f4e487b7100000000000000000000000000000000000000000000000000000000600052603260045260246000fd5b600081519050919050565b7f4e487b7100000000000000000000000000000000000000000000000000000000600052602260045260246000fd5b600060028204905060018216806200068357607f821691505b6020821081036200069957620006986200063b565b5b50919050565b60008190508160005260206000209050919050565b60006020601f8301049050919050565b600082821b905092915050565b600060088302620007037fffffffffffffffffffffffffffffffffffffffffffffffffffffffffffffffff82620006c4565b6200070f8683620006c4565b95508019841693508086168417925050509392505050565b6000819050919050565b6000819050919050565b60006200075c62000756620007508462000727565b62000731565b62000727565b9050919050565b6000819050919050565b62000778836200073b565b62000790620007878262000763565b848454620006d1565b825550505050565b600090565b620007a762000798565b620007b48184846200076d565b505050565b5b81811015620007dc57620007d06000826200079d565b600181019050620007ba565b5050565b601f8211156200082b57620007f5816200069f565b6200080084620006b4565b8101602085101562000810578190505b620008286200081f85620006b4565b830182620007b9565b50505b505050565b600082821c905092915050565b6000620008506000198460080262000830565b1980831691505092915050565b60006200086b83836200083d565b9150826002028217905092915050565b620008868262000630565b67ffffffffffffffff811115620008a257620008a1620002e9565b5b620008ae82546200066a565b620008bb828285620007e0565b600060209050601f831160018114620008f35760008415620008de578287015190505b620008ea85826200085d565b8655506200095a565b601f19841662000903866200069f565b60005b828110156200092d5784890151825560018201915060208501945060208101905062000906565b868310156200094d578489015162000949601f8916826200083d565b8355505b6001600288020188555050505b505050505050565b7f4e487b7100000000000000000000000000000000000000000000000000000000600052601160045260246000fd5b60006200099e8262000727565b91507fffffffffffffffffffffffffffffffffffffffffffffffffffffffffffffffff8203620009d357620009d262000962565b5b600182019050919050565b610d9580620009ee6000396000f3fe608060405234801561001057600080fd5b50600436106100885760003560e01c8063715018a61161005b578063715018a61461013b5780638da5cb5b14610145578063a6bd542714610163578063f2fde38b1461018157610088565b80630121b93f1461008d57806309eef43e146100a95780631ce5e9a6146100d9578063409e22051461010a575b600080fd5b6100a760048036038101906100a2919061097f565b61019d565b005b6100c360048036038101906100be9190610a0a565b61044f565b6040516100d09190610a52565b60405180910390f35b6100f360048036038101906100ee919061097f565b61046f565b604051610101929190610b0c565b60405180910390f35b610124600480360381019061011f919061097f565b610626565b604051610132929190610b0c565b60405180910390f35b6101436106e2565b005b61014d6106f6565b60405161015a9190610b4b565b60405180910390f35b61016b61071f565b6040516101789190610b66565b60405180910390f35b61019b60048036038101906101969190610a0a565b610768565b005b6101b1679eed8a6e321bc9b960c01b6107ee565b6101c567d933294995edb01360c01b6107ee565b6101d967651ff49b7bde605260c01b6107ee565b6101ed67a765d5dbb613ca9560c01b6107ee565b600260003373ffffffffffffffffffffffffffffffffffffffff1673ffffffffffffffffffffffffffffffffffffffff16815260200190815260200160002060009054906101000a900460ff161561027a576040517f08c379a000000000000000000000000000000000000000000000000000000000815260040161027190610bcd565b60405180910390fd5b61028e6745bf911f09e866d560c01b6107ee565b6102a267cd12bd3e323f366c60c01b6107ee565b6102b66757dd7d5e40c9b04660c01b6107ee565b6102ca67a6ab7a3db8d2f14d60c01b6107ee565b6001805490508110610311576040517f08c379a000000000000000000000000000000000000000000000000000000000815260040161030890610c39565b60405180910390fd5b610325671f9c1475cd8e6cf660c01b6107ee565b610339670e8cde3f70ac13a960c01b6107ee565b6001818154811061034d5761034c610c59565b5b9060005260206000209060020201600101600081548092919061036f90610cb7565b9190505550610388674bc3ead4368b1a9a60c01b6107ee565b6001600260003373ffffffffffffffffffffffffffffffffffffffff1673ffffffffffffffffffffffffffffffffffffffff16815260200190815260200160002060006101000a81548160ff0219169083151502179055506103f4674d2a9c517a2d448a60c01b6107ee565b61040867e785ca50a337d79b60c01b6107ee565b803373ffffffffffffffffffffffffffffffffffffffff167fd0e6c39f2e086dc49f1524b47725526a56945cd1ff661f37976f1725a1e5698660405160405180910390a350565b60026020528060005260406000206000915054906101000a900460ff1681565b60606000610487672fa187893b88106f60c01b6107ee565b61049b6765f2b053424072fb60c01b6107ee565b6104af6796c5e67f7fb49b5560c01b6107ee565b6104c36714262c01be6d974260c01b6107ee565b600180549050831061050a576040517f08c379a000000000000000000000000000000000000000000000000000000000815260040161050190610c39565b60405180910390fd5b61051e67cc9252231a97e86c60c01b6107ee565b61053267c179555b77fd5e0060c01b6107ee565b61054667e129dc54be6fe9b360c01b6107ee565b6001838154811061055a57610559610c59565b5b90600052602060002090600202016000016001848154811061057f5761057e610c59565b5b90600052602060002090600202016001015481805461059d90610d2e565b80601f01602080910402602001604051908101604052809291908181526020018280546105c990610d2e565b80156106165780601f106105eb57610100808354040283529160200191610616565b820191906000526020600020905b8154815290600101906020018083116105f957829003601f168201915b5050505050915091509150915091565b6001818154811061063657600080fd5b906000526020600020906002020160009150905080600001805461065990610d2e565b80601f016020809104026020016040519081016040528092919081815260200182805461068590610d2e565b80156106d25780601f106106a7576101008083540402835291602001916106d2565b820191906000526020600020905b8154815290600101906020018083116106b557829003601f168201915b5050505050908060010154905082565b6106ea6107f1565b6106f46000610878565b565b60008060009054906101000a900473ffffffffffffffffffffffffffffffffffffffff16905090565b600061073567ca1af3f0be94191760c01b6107ee565b61074967ed2a002db56c9a9a60c01b6107ee565b61075d67843c158c7a44803260c01b6107ee565b600180549050905090565b6107706107f1565b600073ffffffffffffffffffffffffffffffffffffffff168173ffffffffffffffffffffffffffffffffffffffff16036107e25760006040517f1e4fbdf70000000000000000000000000000000000000000000000000000000081526004016107d99190610b4b565b60405180910390fd5b6107eb81610878565b50565b50565b6107f961093c565b73ffffffffffffffffffffffffffffffffffffffff166108176106f6565b73ffffffffffffffffffffffffffffffffffffffff16146108765761083a61093c565b6040517f118cdaa700000000000000000000000000000000000000000000000000000000815260040161086d9190610b4b565b60405180910390fd5b565b60008060009054906101000a900473ffffffffffffffffffffffffffffffffffffffff169050816000806101000a81548173ffffffffffffffffffffffffffffffffffffffff021916908373ffffffffffffffffffffffffffffffffffffffff1602179055508173ffffffffffffffffffffffffffffffffffffffff168173ffffffffffffffffffffffffffffffffffffffff167f8be0079c531659141344cd1fd0a4f28419497f9722a3daafe3b4186f6b6457e060405160405180910390a35050565b600033905090565b600080fd5b6000819050919050565b61095c81610949565b811461096757600080fd5b50565b60008135905061097981610953565b92915050565b60006020828403121561099557610994610944565b5b60006109a38482850161096a565b91505092915050565b600073ffffffffffffffffffffffffffffffffffffffff82169050919050565b60006109d7826109ac565b9050919050565b6109e7816109cc565b81146109f257600080fd5b50565b600081359050610a04816109de565b92915050565b600060208284031215610a2057610a1f610944565b5b6000610a2e848285016109f5565b91505092915050565b60008115159050919050565b610a4c81610a37565b82525050565b6000602082019050610a676000830184610a43565b92915050565b600081519050919050565b600082825260208201905092915050565b60005b83811015610aa7578082015181840152602081019050610a8c565b60008484015250505050565b6000601f19601f8301169050919050565b6000610acf82610a6d565b610ad98185610a78565b9350610ae9818560208601610a89565b610af281610ab3565b840191505092915050565b610b0681610949565b82525050565b60006040820190508181036000830152610b268185610ac4565b9050610b356020830184610afd565b9392505050565b610b45816109cc565b82525050565b6000602082019050610b606000830184610b3c565b92915050565b6000602082019050610b7b6000830184610afd565b92915050565b7f596f75206861766520616c726561647920766f7465642e000000000000000000600082015250565b6000610bb7601783610a78565b9150610bc282610b81565b602082019050919050565b60006020820190508181036000830152610be681610baa565b9050919050565b7f496e76616c6964206f7074696f6e20696e6465782e0000000000000000000000600082015250565b6000610c23601583610a78565b9150610c2e82610bed565b602082019050919050565b60006020820190508181036000830152610c5281610c16565b9050919050565b7f4e487b7100000000000000000000000000000000000000000000000000000000600052603260045260246000fd5b7f4e487b7100000000000000000000000000000000000000000000000000000000600052601160045260246000fd5b6000610cc282610949565b91507fffffffffffffffffffffffffffffffffffffffffffffffffffffffffffffffff8203610cf457610cf3610c88565b5b600182019050919050565b7f4e487b7100000000000000000000000000000000000000000000000000000000600052602260045260246000fd5b60006002820490506001821680610d4657607f821691505b602082108103610d5957610d58610cff565b5b5091905056fea2646970667358221220db5d20441ab7d1326f9e8c72f8e8bbfd9fb74fe4c68997b5a33ef844aabe67e664736f6c63430008140033",
  "linkReferences": {},
  "deployedLinkReferences": {}
}